{
    "_format": "hh-sol-artifact-1",
    "contractName": "NeonApes",
    "sourceName": "contracts/NeonApes.sol",
    "abi": [
        {
            "inputs": [
                {
                    "internalType": "string",
                    "name": "name",
                    "type": "string"
                },
                {
                    "internalType": "string",
                    "name": "symbol",
                    "type": "string"
                },
                {
                    "internalType": "uint256",
                    "name": "revealTS",
                    "type": "uint256"
                }
            ],
            "stateMutability": "nonpayable",
            "type": "constructor"
        },
        {
            "anonymous": false,
            "inputs": [
                {
                    "indexed": true,
                    "internalType": "address",
                    "name": "owner",
                    "type": "address"
                },
                {
                    "indexed": true,
                    "internalType": "address",
                    "name": "approved",
                    "type": "address"
                },
                {
                    "indexed": true,
                    "internalType": "uint256",
                    "name": "tokenId",
                    "type": "uint256"
                }
            ],
            "name": "Approval",
            "type": "event"
        },
        {
            "anonymous": false,
            "inputs": [
                {
                    "indexed": true,
                    "internalType": "address",
                    "name": "owner",
                    "type": "address"
                },
                {
                    "indexed": true,
                    "internalType": "address",
                    "name": "operator",
                    "type": "address"
                },
                {
                    "indexed": false,
                    "internalType": "bool",
                    "name": "approved",
                    "type": "bool"
                }
            ],
            "name": "ApprovalForAll",
            "type": "event"
        },
        {
            "anonymous": false,
            "inputs": [
                {
                    "indexed": false,
                    "internalType": "address",
                    "name": "mintOwner",
                    "type": "address"
                },
                {
                    "indexed": false,
                    "internalType": "uint256",
                    "name": "newTokenId",
                    "type": "uint256"
                }
            ],
            "name": "Minted",
            "type": "event"
        },
        {
            "anonymous": false,
            "inputs": [
                {
                    "indexed": true,
                    "internalType": "address",
                    "name": "previousOwner",
                    "type": "address"
                },
                {
                    "indexed": true,
                    "internalType": "address",
                    "name": "newOwner",
                    "type": "address"
                }
            ],
            "name": "OwnershipTransferred",
            "type": "event"
        },
        {
            "anonymous": false,
            "inputs": [
                {
                    "indexed": true,
                    "internalType": "address",
                    "name": "from",
                    "type": "address"
                },
                {
                    "indexed": true,
                    "internalType": "address",
                    "name": "to",
                    "type": "address"
                },
                {
                    "indexed": true,
                    "internalType": "uint256",
                    "name": "tokenId",
                    "type": "uint256"
                }
            ],
            "name": "Transfer",
            "type": "event"
        },
        {
            "inputs": [],
            "name": "MAX_MINT",
            "outputs": [
                {
                    "internalType": "uint256",
                    "name": "",
                    "type": "uint256"
                }
            ],
            "stateMutability": "view",
            "type": "function"
        },
        {
            "inputs": [],
            "name": "MAX_PURCHASE",
            "outputs": [
                {
                    "internalType": "uint256",
                    "name": "",
                    "type": "uint256"
                }
            ],
            "stateMutability": "view",
            "type": "function"
        },
        {
            "inputs": [],
            "name": "MINT_PRICE",
            "outputs": [
                {
                    "internalType": "uint256",
                    "name": "",
                    "type": "uint256"
                }
            ],
            "stateMutability": "view",
            "type": "function"
        },
        {
            "inputs": [],
            "name": "admin",
            "outputs": [
                {
                    "internalType": "address",
                    "name": "",
                    "type": "address"
                }
            ],
            "stateMutability": "view",
            "type": "function"
        },
        {
            "inputs": [
                {
                    "internalType": "address",
                    "name": "to",
                    "type": "address"
                },
                {
                    "internalType": "uint256",
                    "name": "tokenId",
                    "type": "uint256"
                }
            ],
            "name": "approve",
            "outputs": [],
            "stateMutability": "nonpayable",
            "type": "function"
        },
        {
            "inputs": [
                {
                    "internalType": "address",
                    "name": "owner",
                    "type": "address"
                }
            ],
            "name": "balanceOf",
            "outputs": [
                {
                    "internalType": "uint256",
                    "name": "",
                    "type": "uint256"
                }
            ],
            "stateMutability": "view",
            "type": "function"
        },
        {
            "inputs": [],
            "name": "baseURI",
            "outputs": [
                {
                    "internalType": "string",
                    "name": "",
                    "type": "string"
                }
            ],
            "stateMutability": "view",
            "type": "function"
        },
        {
            "inputs": [],
            "name": "flipSaleState",
            "outputs": [],
            "stateMutability": "nonpayable",
            "type": "function"
        },
        {
            "inputs": [],
            "name": "flipWhitelistSaleState",
            "outputs": [],
            "stateMutability": "nonpayable",
            "type": "function"
        },
        {
            "inputs": [
                {
                    "internalType": "uint256",
                    "name": "tokenId",
                    "type": "uint256"
                }
            ],
            "name": "getApproved",
            "outputs": [
                {
                    "internalType": "address",
                    "name": "",
                    "type": "address"
                }
            ],
            "stateMutability": "view",
            "type": "function"
        },
        {
            "inputs": [
                {
                    "internalType": "address",
                    "name": "owner",
                    "type": "address"
                },
                {
                    "internalType": "address",
                    "name": "operator",
                    "type": "address"
                }
            ],
            "name": "isApprovedForAll",
            "outputs": [
                {
                    "internalType": "bool",
                    "name": "",
                    "type": "bool"
                }
            ],
            "stateMutability": "view",
            "type": "function"
        },
        {
            "inputs": [
                {
                    "internalType": "address",
                    "name": "addr",
                    "type": "address"
                }
            ],
            "name": "isWhitelisted",
            "outputs": [
                {
                    "internalType": "bool",
                    "name": "",
                    "type": "bool"
                }
            ],
            "stateMutability": "view",
            "type": "function"
        },
        {
            "inputs": [
                {
                    "internalType": "uint256",
                    "name": "tokenToMint",
                    "type": "uint256"
                }
            ],
            "name": "mint",
            "outputs": [],
            "stateMutability": "payable",
            "type": "function"
        },
        {
            "inputs": [],
            "name": "name",
            "outputs": [
                {
                    "internalType": "string",
                    "name": "",
                    "type": "string"
                }
            ],
            "stateMutability": "view",
            "type": "function"
        },
        {
            "inputs": [],
            "name": "owner",
            "outputs": [
                {
                    "internalType": "address",
                    "name": "",
                    "type": "address"
                }
            ],
            "stateMutability": "view",
            "type": "function"
        },
        {
            "inputs": [
                {
                    "internalType": "uint256",
                    "name": "tokenId",
                    "type": "uint256"
                }
            ],
            "name": "ownerOf",
            "outputs": [
                {
                    "internalType": "address",
                    "name": "",
                    "type": "address"
                }
            ],
            "stateMutability": "view",
            "type": "function"
        },
        {
            "inputs": [],
            "name": "renounceOwnership",
            "outputs": [],
            "stateMutability": "nonpayable",
            "type": "function"
        },
        {
            "inputs": [],
            "name": "revealTimestamp",
            "outputs": [
                {
                    "internalType": "uint256",
                    "name": "",
                    "type": "uint256"
                }
            ],
            "stateMutability": "view",
            "type": "function"
        },
        {
            "inputs": [
                {
                    "internalType": "address",
                    "name": "from",
                    "type": "address"
                },
                {
                    "internalType": "address",
                    "name": "to",
                    "type": "address"
                },
                {
                    "internalType": "uint256",
                    "name": "tokenId",
                    "type": "uint256"
                }
            ],
            "name": "safeTransferFrom",
            "outputs": [],
            "stateMutability": "nonpayable",
            "type": "function"
        },
        {
            "inputs": [
                {
                    "internalType": "address",
                    "name": "from",
                    "type": "address"
                },
                {
                    "internalType": "address",
                    "name": "to",
                    "type": "address"
                },
                {
                    "internalType": "uint256",
                    "name": "tokenId",
                    "type": "uint256"
                },
                {
                    "internalType": "bytes",
                    "name": "_data",
                    "type": "bytes"
                }
            ],
            "name": "safeTransferFrom",
            "outputs": [],
            "stateMutability": "nonpayable",
            "type": "function"
        },
        {
            "inputs": [],
            "name": "saleIsActive",
            "outputs": [
                {
                    "internalType": "bool",
                    "name": "",
                    "type": "bool"
                }
            ],
            "stateMutability": "view",
            "type": "function"
        },
        {
            "inputs": [],
            "name": "saleIsActiveForwhitelist",
            "outputs": [
                {
                    "internalType": "bool",
                    "name": "",
                    "type": "bool"
                }
            ],
            "stateMutability": "view",
            "type": "function"
        },
        {
            "inputs": [
                {
                    "internalType": "address",
                    "name": "adminAddr",
                    "type": "address"
                }
            ],
            "name": "setAdmin",
            "outputs": [],
            "stateMutability": "nonpayable",
            "type": "function"
        },
        {
            "inputs": [
                {
                    "internalType": "address",
                    "name": "operator",
                    "type": "address"
                },
                {
                    "internalType": "bool",
                    "name": "approved",
                    "type": "bool"
                }
            ],
            "name": "setApprovalForAll",
            "outputs": [],
            "stateMutability": "nonpayable",
            "type": "function"
        },
        {
            "inputs": [
                {
                    "internalType": "string",
                    "name": "uri",
                    "type": "string"
                }
            ],
            "name": "setBaseURI",
            "outputs": [],
            "stateMutability": "nonpayable",
            "type": "function"
        },
        {
            "inputs": [
                {
                    "internalType": "uint256",
                    "name": "newRevealTimestamp",
                    "type": "uint256"
                }
            ],
            "name": "setRevealTimestamp",
            "outputs": [],
            "stateMutability": "nonpayable",
            "type": "function"
        },
        {
            "inputs": [],
            "name": "specialMint",
            "outputs": [],
            "stateMutability": "nonpayable",
            "type": "function"
        },
        {
            "inputs": [],
            "name": "specialMintHappened",
            "outputs": [
                {
                    "internalType": "bool",
                    "name": "",
                    "type": "bool"
                }
            ],
            "stateMutability": "view",
            "type": "function"
        },
        {
            "inputs": [],
            "name": "startingBlock",
            "outputs": [
                {
                    "internalType": "uint256",
                    "name": "",
                    "type": "uint256"
                }
            ],
            "stateMutability": "view",
            "type": "function"
        },
        {
            "inputs": [
                {
                    "internalType": "bytes4",
                    "name": "interfaceId",
                    "type": "bytes4"
                }
            ],
            "name": "supportsInterface",
            "outputs": [
                {
                    "internalType": "bool",
                    "name": "",
                    "type": "bool"
                }
            ],
            "stateMutability": "view",
            "type": "function"
        },
        {
            "inputs": [],
            "name": "symbol",
            "outputs": [
                {
                    "internalType": "string",
                    "name": "",
                    "type": "string"
                }
            ],
            "stateMutability": "view",
            "type": "function"
        },
        {
            "inputs": [
                {
                    "internalType": "uint256",
                    "name": "tokenId",
                    "type": "uint256"
                }
            ],
            "name": "tokenURI",
            "outputs": [
                {
                    "internalType": "string",
                    "name": "",
                    "type": "string"
                }
            ],
            "stateMutability": "view",
            "type": "function"
        },
        {
            "inputs": [
                {
                    "internalType": "address",
                    "name": "from",
                    "type": "address"
                },
                {
                    "internalType": "address",
                    "name": "to",
                    "type": "address"
                },
                {
                    "internalType": "uint256",
                    "name": "tokenId",
                    "type": "uint256"
                }
            ],
            "name": "transferFrom",
            "outputs": [],
            "stateMutability": "nonpayable",
            "type": "function"
        },
        {
            "inputs": [
                {
                    "internalType": "address",
                    "name": "newOwner",
                    "type": "address"
                }
            ],
            "name": "transferOwnership",
            "outputs": [],
            "stateMutability": "nonpayable",
            "type": "function"
        },
        {
            "inputs": [
                {
                    "internalType": "address",
                    "name": "",
                    "type": "address"
                }
            ],
            "name": "whitelist",
            "outputs": [
                {
                    "internalType": "bool",
                    "name": "",
                    "type": "bool"
                }
            ],
            "stateMutability": "view",
            "type": "function"
        },
        {
            "inputs": [
                {
                    "internalType": "address",
                    "name": "addr",
                    "type": "address"
                },
                {
                    "internalType": "bool",
                    "name": "isWl",
                    "type": "bool"
                }
            ],
            "name": "whitelistAddr",
            "outputs": [],
            "stateMutability": "nonpayable",
            "type": "function"
        },
        {
            "inputs": [],
            "name": "whitelistedMint",
            "outputs": [],
            "stateMutability": "payable",
            "type": "function"
        },
        {
            "inputs": [],
            "name": "withdraw",
            "outputs": [],
            "stateMutability": "nonpayable",
            "type": "function"
        }
    ],
    "bytecode": "0x60806040526000600960006101000a81548160ff0219169083151502179055506000600960016101000a81548160ff0219169083151502179055506000600c60006101000a81548160ff0219169083151502179055503480156200006257600080fd5b506040516200479938038062004799833981810160405281019062000088919062000334565b8282620000aa6200009e6200012f60201b60201c565b6200013760201b60201c565b8160019080519060200190620000c2929190620001fb565b508060029080519060200190620000db929190620001fb565b50505080600b8190555033600e60006101000a81548173ffffffffffffffffffffffffffffffffffffffff021916908373ffffffffffffffffffffffffffffffffffffffff16021790555050505062000550565b600033905090565b60008060009054906101000a900473ffffffffffffffffffffffffffffffffffffffff169050816000806101000a81548173ffffffffffffffffffffffffffffffffffffffff021916908373ffffffffffffffffffffffffffffffffffffffff1602179055508173ffffffffffffffffffffffffffffffffffffffff168173ffffffffffffffffffffffffffffffffffffffff167f8be0079c531659141344cd1fd0a4f28419497f9722a3daafe3b4186f6b6457e060405160405180910390a35050565b82805462000209906200045b565b90600052602060002090601f0160209004810192826200022d576000855562000279565b82601f106200024857805160ff191683800117855562000279565b8280016001018555821562000279579182015b82811115620002785782518255916020019190600101906200025b565b5b5090506200028891906200028c565b5090565b5b80821115620002a75760008160009055506001016200028d565b5090565b6000620002c2620002bc84620003e5565b620003bc565b905082815260208101848484011115620002db57600080fd5b620002e884828562000425565b509392505050565b600082601f8301126200030257600080fd5b815162000314848260208601620002ab565b91505092915050565b6000815190506200032e8162000536565b92915050565b6000806000606084860312156200034a57600080fd5b600084015167ffffffffffffffff8111156200036557600080fd5b6200037386828701620002f0565b935050602084015167ffffffffffffffff8111156200039157600080fd5b6200039f86828701620002f0565b9250506040620003b2868287016200031d565b9150509250925092565b6000620003c8620003db565b9050620003d6828262000491565b919050565b6000604051905090565b600067ffffffffffffffff821115620004035762000402620004f6565b5b6200040e8262000525565b9050602081019050919050565b6000819050919050565b60005b838110156200044557808201518184015260208101905062000428565b8381111562000455576000848401525b50505050565b600060028204905060018216806200047457607f821691505b602082108114156200048b576200048a620004c7565b5b50919050565b6200049c8262000525565b810181811067ffffffffffffffff82111715620004be57620004bd620004f6565b5b80604052505050565b7f4e487b7100000000000000000000000000000000000000000000000000000000600052602260045260246000fd5b7f4e487b7100000000000000000000000000000000000000000000000000000000600052604160045260246000fd5b6000601f19601f8301169050919050565b62000541816200041b565b81146200054d57600080fd5b50565b61423980620005606000396000f3fe6080604052600436106102255760003560e01c806378ded91e11610123578063c87b56dd116100ab578063f0292a031161006f578063f0292a031461079f578063f2fde38b146107ca578063f62f3c11146107f3578063f851a4401461081e578063fad4ad5c1461084957610225565b8063c87b56dd146106b8578063d1beca64146106f5578063d91c98d31461070c578063e985e9c514610737578063eb8d24441461077457610225565b80639b19251a116100f25780639b19251a146105e2578063a0712d681461061f578063a22cb4651461063b578063b88d4fde14610664578063c002d23d1461068d57610225565b806378ded91e146105575780638da5cb5b1461056157806395d89b411461058c57806398ad87b0146105b757610225565b80633ccfd60b116101b15780636c9e22d1116101755780636c9e22d114610486578063704b6c02146104af57806370a08231146104d85780637146bd0814610515578063715018a61461054057610225565b80633ccfd60b146103b557806342842e0e146103cc57806355f804b3146103f55780636352211e1461041e5780636c0360eb1461045b57610225565b8063095ea7b3116101f8578063095ea7b3146102f85780630f017a611461032157806323b872dd1461033857806334918dfd146103615780633af32abf1461037857610225565b8063018a2c371461022a57806301ffc9a71461025357806306fdde0314610290578063081812fc146102bb575b600080fd5b34801561023657600080fd5b50610251600480360381019061024c9190612f75565b610874565b005b34801561025f57600080fd5b5061027a60048036038101906102759190612ee2565b6108fa565b6040516102879190613447565b60405180910390f35b34801561029c57600080fd5b506102a56109dc565b6040516102b29190613462565b60405180910390f35b3480156102c757600080fd5b506102e260048036038101906102dd9190612f75565b610a6e565b6040516102ef91906133b7565b60405180910390f35b34801561030457600080fd5b5061031f600480360381019061031a9190612ea6565b610af3565b005b34801561032d57600080fd5b50610336610c0b565b005b34801561034457600080fd5b5061035f600480360381019061035a9190612da0565b610d31565b005b34801561036d57600080fd5b50610376610d91565b005b34801561038457600080fd5b5061039f600480360381019061039a9190612d3b565b610e39565b6040516103ac9190613447565b60405180910390f35b3480156103c157600080fd5b506103ca610e8f565b005b3480156103d857600080fd5b506103f360048036038101906103ee9190612da0565b610f54565b005b34801561040157600080fd5b5061041c60048036038101906104179190612f34565b610f74565b005b34801561042a57600080fd5b5061044560048036038101906104409190612f75565b61100a565b60405161045291906133b7565b60405180910390f35b34801561046757600080fd5b506104706110bc565b60405161047d9190613462565b60405180910390f35b34801561049257600080fd5b506104ad60048036038101906104a89190612e6a565b61114a565b005b3480156104bb57600080fd5b506104d660048036038101906104d19190612d3b565b611272565b005b3480156104e457600080fd5b506104ff60048036038101906104fa9190612d3b565b611332565b60405161050c9190613764565b60405180910390f35b34801561052157600080fd5b5061052a6113ea565b6040516105379190613764565b60405180910390f35b34801561054c57600080fd5b506105556113ef565b005b61055f611477565b005b34801561056d57600080fd5b506105766116ba565b60405161058391906133b7565b60405180910390f35b34801561059857600080fd5b506105a16116e3565b6040516105ae9190613462565b60405180910390f35b3480156105c357600080fd5b506105cc611775565b6040516105d99190613447565b60405180910390f35b3480156105ee57600080fd5b5061060960048036038101906106049190612d3b565b611788565b6040516106169190613447565b60405180910390f35b61063960048036038101906106349190612f75565b6117a8565b005b34801561064757600080fd5b50610662600480360381019061065d9190612e6a565b611993565b005b34801561067057600080fd5b5061068b60048036038101906106869190612def565b6119a9565b005b34801561069957600080fd5b506106a2611a0b565b6040516106af9190613764565b60405180910390f35b3480156106c457600080fd5b506106df60048036038101906106da9190612f75565b611a17565b6040516106ec9190613462565b60405180910390f35b34801561070157600080fd5b5061070a611abe565b005b34801561071857600080fd5b50610721611b66565b60405161072e9190613764565b60405180910390f35b34801561074357600080fd5b5061075e60048036038101906107599190612d64565b611b6c565b60405161076b9190613447565b60405180910390f35b34801561078057600080fd5b50610789611c00565b6040516107969190613447565b60405180910390f35b3480156107ab57600080fd5b506107b4611c13565b6040516107c19190613764565b60405180910390f35b3480156107d657600080fd5b506107f160048036038101906107ec9190612d3b565b611c19565b005b3480156107ff57600080fd5b50610808611d11565b6040516108159190613764565b60405180910390f35b34801561082a57600080fd5b50610833611d17565b60405161084091906133b7565b60405180910390f35b34801561085557600080fd5b5061085e611d3d565b60405161086b9190613447565b60405180910390f35b61087c611d50565b73ffffffffffffffffffffffffffffffffffffffff1661089a6116ba565b73ffffffffffffffffffffffffffffffffffffffff16146108f0576040517f08c379a00000000000000000000000000000000000000000000000000000000081526004016108e7906136a4565b60405180910390fd5b80600b8190555050565b60007f80ac58cd000000000000000000000000000000000000000000000000000000007bffffffffffffffffffffffffffffffffffffffffffffffffffffffff1916827bffffffffffffffffffffffffffffffffffffffffffffffffffffffff191614806109c557507f5b5e139f000000000000000000000000000000000000000000000000000000007bffffffffffffffffffffffffffffffffffffffffffffffffffffffff1916827bffffffffffffffffffffffffffffffffffffffffffffffffffffffff1916145b806109d557506109d482611d58565b5b9050919050565b6060600180546109eb90613a14565b80601f0160208091040260200160405190810160405280929190818152602001828054610a1790613a14565b8015610a645780601f10610a3957610100808354040283529160200191610a64565b820191906000526020600020905b815481529060010190602001808311610a4757829003601f168201915b5050505050905090565b6000610a7982611dc2565b610ab8576040517f08c379a0000000000000000000000000000000000000000000000000000000008152600401610aaf90613684565b60405180910390fd5b6005600083815260200190815260200160002060009054906101000a900473ffffffffffffffffffffffffffffffffffffffff169050919050565b6000610afe8261100a565b90508073ffffffffffffffffffffffffffffffffffffffff168373ffffffffffffffffffffffffffffffffffffffff161415610b6f576040517f08c379a0000000000000000000000000000000000000000000000000000000008152600401610b66906136e4565b60405180910390fd5b8073ffffffffffffffffffffffffffffffffffffffff16610b8e611d50565b73ffffffffffffffffffffffffffffffffffffffff161480610bbd5750610bbc81610bb7611d50565b611b6c565b5b610bfc576040517f08c379a0000000000000000000000000000000000000000000000000000000008152600401610bf3906135c4565b60405180910390fd5b610c068383611e2e565b505050565b610c13611d50565b73ffffffffffffffffffffffffffffffffffffffff16610c316116ba565b73ffffffffffffffffffffffffffffffffffffffff1614610c87576040517f08c379a0000000000000000000000000000000000000000000000000000000008152600401610c7e906136a4565b60405180910390fd5b60001515600c60009054906101000a900460ff16151514610cdd576040517f08c379a0000000000000000000000000000000000000000000000000000000008152600401610cd4906134a4565b60405180910390fd5b6001600c60006101000a81548160ff02191690831515021790555060005b6032811015610d2e57610d1b33826103e8610d169190613849565b611ee7565b8080610d2690613a77565b915050610cfb565b50565b610d42610d3c611d50565b82611f05565b610d81576040517f08c379a0000000000000000000000000000000000000000000000000000000008152600401610d7890613724565b60405180910390fd5b610d8c838383611fe3565b505050565b610d99611d50565b73ffffffffffffffffffffffffffffffffffffffff16610db76116ba565b73ffffffffffffffffffffffffffffffffffffffff1614610e0d576040517f08c379a0000000000000000000000000000000000000000000000000000000008152600401610e04906136a4565b60405180910390fd5b600960009054906101000a900460ff1615600960006101000a81548160ff021916908315150217905550565b6000600d60008373ffffffffffffffffffffffffffffffffffffffff1673ffffffffffffffffffffffffffffffffffffffff16815260200190815260200160002060009054906101000a900460ff169050919050565b610e97611d50565b73ffffffffffffffffffffffffffffffffffffffff16610eb56116ba565b73ffffffffffffffffffffffffffffffffffffffff1614610f0b576040517f08c379a0000000000000000000000000000000000000000000000000000000008152600401610f02906136a4565b60405180910390fd5b3373ffffffffffffffffffffffffffffffffffffffff166108fc479081150290604051600060405180830381858888f19350505050158015610f51573d6000803e3d6000fd5b50565b610f6f838383604051806020016040528060008152506119a9565b505050565b610f7c611d50565b73ffffffffffffffffffffffffffffffffffffffff16610f9a6116ba565b73ffffffffffffffffffffffffffffffffffffffff1614610ff0576040517f08c379a0000000000000000000000000000000000000000000000000000000008152600401610fe7906136a4565b60405180910390fd5b8060089080519060200190611006929190612b5f565b5050565b6000806003600084815260200190815260200160002060009054906101000a900473ffffffffffffffffffffffffffffffffffffffff169050600073ffffffffffffffffffffffffffffffffffffffff168173ffffffffffffffffffffffffffffffffffffffff1614156110b3576040517f08c379a00000000000000000000000000000000000000000000000000000000081526004016110aa90613604565b60405180910390fd5b80915050919050565b600880546110c990613a14565b80601f01602080910402602001604051908101604052809291908181526020018280546110f590613a14565b80156111425780601f1061111757610100808354040283529160200191611142565b820191906000526020600020905b81548152906001019060200180831161112557829003601f168201915b505050505081565b600e60009054906101000a900473ffffffffffffffffffffffffffffffffffffffff1673ffffffffffffffffffffffffffffffffffffffff163373ffffffffffffffffffffffffffffffffffffffff1614806111d857506111a96116ba565b73ffffffffffffffffffffffffffffffffffffffff163373ffffffffffffffffffffffffffffffffffffffff16145b611217576040517f08c379a000000000000000000000000000000000000000000000000000000000815260040161120e90613624565b60405180910390fd5b80600d60008473ffffffffffffffffffffffffffffffffffffffff1673ffffffffffffffffffffffffffffffffffffffff16815260200190815260200160002060006101000a81548160ff0219169083151502179055505050565b61127a611d50565b73ffffffffffffffffffffffffffffffffffffffff166112986116ba565b73ffffffffffffffffffffffffffffffffffffffff16146112ee576040517f08c379a00000000000000000000000000000000000000000000000000000000081526004016112e5906136a4565b60405180910390fd5b80600e60006101000a81548173ffffffffffffffffffffffffffffffffffffffff021916908373ffffffffffffffffffffffffffffffffffffffff16021790555050565b60008073ffffffffffffffffffffffffffffffffffffffff168273ffffffffffffffffffffffffffffffffffffffff1614156113a3576040517f08c379a000000000000000000000000000000000000000000000000000000000815260040161139a906135e4565b60405180910390fd5b600460008373ffffffffffffffffffffffffffffffffffffffff1673ffffffffffffffffffffffffffffffffffffffff168152602001908152602001600020549050919050565b600381565b6113f7611d50565b73ffffffffffffffffffffffffffffffffffffffff166114156116ba565b73ffffffffffffffffffffffffffffffffffffffff161461146b576040517f08c379a0000000000000000000000000000000000000000000000000000000008152600401611462906136a4565b60405180910390fd5b611475600061224a565b565b600960019054906101000a900460ff166114c6576040517f08c379a00000000000000000000000000000000000000000000000000000000081526004016114bd90613484565b60405180910390fd5b6103e86114d3600761230e565b10611513576040517f08c379a000000000000000000000000000000000000000000000000000000000815260040161150a90613704565b60405180910390fd5b670214e8348c4f000034101561155e576040517f08c379a000000000000000000000000000000000000000000000000000000000815260040161155590613744565b60405180910390fd5b60011515600d60003373ffffffffffffffffffffffffffffffffffffffff1673ffffffffffffffffffffffffffffffffffffffff16815260200190815260200160002060009054906101000a900460ff161515146115f1576040517f08c379a00000000000000000000000000000000000000000000000000000000081526004016115e8906134e4565b60405180910390fd5b6000600a5414156116045743600a819055505b6000600d60003373ffffffffffffffffffffffffffffffffffffffff1673ffffffffffffffffffffffffffffffffffffffff16815260200190815260200160002060006101000a81548160ff021916908315150217905550611666600761231c565b6000611672600761230e565b905061167e3382611ee7565b7f30385c845b448a36257a6a1716e6ad2e1bc2cbe333cde1e69fe849ad6511adfe33826040516116af92919061341e565b60405180910390a150565b60008060009054906101000a900473ffffffffffffffffffffffffffffffffffffffff16905090565b6060600280546116f290613a14565b80601f016020809104026020016040519081016040528092919081815260200182805461171e90613a14565b801561176b5780601f106117405761010080835404028352916020019161176b565b820191906000526020600020905b81548152906001019060200180831161174e57829003601f168201915b5050505050905090565b600c60009054906101000a900460ff1681565b600d6020528060005260406000206000915054906101000a900460ff1681565b600960009054906101000a900460ff166117f7576040517f08c379a00000000000000000000000000000000000000000000000000000000081526004016117ee90613484565b60405180910390fd5b600381111561183b576040517f08c379a000000000000000000000000000000000000000000000000000000000815260040161183290613664565b60405180910390fd5b6103e861185a8261184c600761230e565b61233290919063ffffffff16565b1061189a576040517f08c379a000000000000000000000000000000000000000000000000000000000815260040161189190613704565b60405180910390fd5b6118b581670214e8348c4f000061234890919063ffffffff16565b3410156118f7576040517f08c379a00000000000000000000000000000000000000000000000000000000081526004016118ee90613744565b60405180910390fd5b6000600a54141561190a5743600a819055505b60005b8181101561198f5761191f600761231c565b600061192b600761230e565b90506103e881101561197b576119413382611ee7565b7f30385c845b448a36257a6a1716e6ad2e1bc2cbe333cde1e69fe849ad6511adfe338260405161197292919061341e565b60405180910390a15b50808061198790613a77565b91505061190d565b5050565b6119a561199e611d50565b838361235e565b5050565b6119ba6119b4611d50565b83611f05565b6119f9576040517f08c379a00000000000000000000000000000000000000000000000000000000081526004016119f090613724565b60405180910390fd5b611a05848484846124cb565b50505050565b670214e8348c4f000081565b6060611a2282611dc2565b611a61576040517f08c379a0000000000000000000000000000000000000000000000000000000008152600401611a58906136c4565b60405180910390fd5b6000611a6b612527565b90506000815111611a8b5760405180602001604052806000815250611ab6565b80611a95846125b9565b604051602001611aa6929190613393565b6040516020818303038152906040525b915050919050565b611ac6611d50565b73ffffffffffffffffffffffffffffffffffffffff16611ae46116ba565b73ffffffffffffffffffffffffffffffffffffffff1614611b3a576040517f08c379a0000000000000000000000000000000000000000000000000000000008152600401611b31906136a4565b60405180910390fd5b600960019054906101000a900460ff1615600960016101000a81548160ff021916908315150217905550565b600a5481565b6000600660008473ffffffffffffffffffffffffffffffffffffffff1673ffffffffffffffffffffffffffffffffffffffff16815260200190815260200160002060008373ffffffffffffffffffffffffffffffffffffffff1673ffffffffffffffffffffffffffffffffffffffff16815260200190815260200160002060009054906101000a900460ff16905092915050565b600960009054906101000a900460ff1681565b6103e881565b611c21611d50565b73ffffffffffffffffffffffffffffffffffffffff16611c3f6116ba565b73ffffffffffffffffffffffffffffffffffffffff1614611c95576040517f08c379a0000000000000000000000000000000000000000000000000000000008152600401611c8c906136a4565b60405180910390fd5b600073ffffffffffffffffffffffffffffffffffffffff168173ffffffffffffffffffffffffffffffffffffffff161415611d05576040517f08c379a0000000000000000000000000000000000000000000000000000000008152600401611cfc90613504565b60405180910390fd5b611d0e8161224a565b50565b600b5481565b600e60009054906101000a900473ffffffffffffffffffffffffffffffffffffffff1681565b600960019054906101000a900460ff1681565b600033905090565b60007f01ffc9a7000000000000000000000000000000000000000000000000000000007bffffffffffffffffffffffffffffffffffffffffffffffffffffffff1916827bffffffffffffffffffffffffffffffffffffffffffffffffffffffff1916149050919050565b60008073ffffffffffffffffffffffffffffffffffffffff166003600084815260200190815260200160002060009054906101000a900473ffffffffffffffffffffffffffffffffffffffff1673ffffffffffffffffffffffffffffffffffffffff1614159050919050565b816005600083815260200190815260200160002060006101000a81548173ffffffffffffffffffffffffffffffffffffffff021916908373ffffffffffffffffffffffffffffffffffffffff160217905550808273ffffffffffffffffffffffffffffffffffffffff16611ea18361100a565b73ffffffffffffffffffffffffffffffffffffffff167f8c5be1e5ebec7d5bd14f71427d1e84f3dd0314c0f7b2291e5b200ac8c7c3b92560405160405180910390a45050565b611f01828260405180602001604052806000815250612766565b5050565b6000611f1082611dc2565b611f4f576040517f08c379a0000000000000000000000000000000000000000000000000000000008152600401611f46906135a4565b60405180910390fd5b6000611f5a8361100a565b90508073ffffffffffffffffffffffffffffffffffffffff168473ffffffffffffffffffffffffffffffffffffffff161480611f9c5750611f9b8185611b6c565b5b80611fda57508373ffffffffffffffffffffffffffffffffffffffff16611fc284610a6e565b73ffffffffffffffffffffffffffffffffffffffff16145b91505092915050565b8273ffffffffffffffffffffffffffffffffffffffff166120038261100a565b73ffffffffffffffffffffffffffffffffffffffff1614612059576040517f08c379a000000000000000000000000000000000000000000000000000000000815260040161205090613524565b60405180910390fd5b600073ffffffffffffffffffffffffffffffffffffffff168273ffffffffffffffffffffffffffffffffffffffff1614156120c9576040517f08c379a00000000000000000000000000000000000000000000000000000000081526004016120c090613564565b60405180910390fd5b6120d48383836127c1565b6120df600082611e2e565b6001600460008573ffffffffffffffffffffffffffffffffffffffff1673ffffffffffffffffffffffffffffffffffffffff168152602001908152602001600020600082825461212f919061392a565b925050819055506001600460008473ffffffffffffffffffffffffffffffffffffffff1673ffffffffffffffffffffffffffffffffffffffff16815260200190815260200160002060008282546121869190613849565b92505081905550816003600083815260200190815260200160002060006101000a81548173ffffffffffffffffffffffffffffffffffffffff021916908373ffffffffffffffffffffffffffffffffffffffff160217905550808273ffffffffffffffffffffffffffffffffffffffff168473ffffffffffffffffffffffffffffffffffffffff167fddf252ad1be2c89b69c2b068fc378daa952ba7f163c4a11628f55a4df523b3ef60405160405180910390a46122458383836127c6565b505050565b60008060009054906101000a900473ffffffffffffffffffffffffffffffffffffffff169050816000806101000a81548173ffffffffffffffffffffffffffffffffffffffff021916908373ffffffffffffffffffffffffffffffffffffffff1602179055508173ffffffffffffffffffffffffffffffffffffffff168173ffffffffffffffffffffffffffffffffffffffff167f8be0079c531659141344cd1fd0a4f28419497f9722a3daafe3b4186f6b6457e060405160405180910390a35050565b600081600001549050919050565b6001816000016000828254019250508190555050565b600081836123409190613849565b905092915050565b6000818361235691906138d0565b905092915050565b8173ffffffffffffffffffffffffffffffffffffffff168373ffffffffffffffffffffffffffffffffffffffff1614156123cd576040517f08c379a00000000000000000000000000000000000000000000000000000000081526004016123c490613584565b60405180910390fd5b80600660008573ffffffffffffffffffffffffffffffffffffffff1673ffffffffffffffffffffffffffffffffffffffff16815260200190815260200160002060008473ffffffffffffffffffffffffffffffffffffffff1673ffffffffffffffffffffffffffffffffffffffff16815260200190815260200160002060006101000a81548160ff0219169083151502179055508173ffffffffffffffffffffffffffffffffffffffff168373ffffffffffffffffffffffffffffffffffffffff167f17307eab39ab6107e8899845ad3d59bd9653f200f220920489ca2b5937696c31836040516124be9190613447565b60405180910390a3505050565b6124d6848484611fe3565b6124e2848484846127cb565b612521576040517f08c379a0000000000000000000000000000000000000000000000000000000008152600401612518906134c4565b60405180910390fd5b50505050565b60606008805461253690613a14565b80601f016020809104026020016040519081016040528092919081815260200182805461256290613a14565b80156125af5780601f10612584576101008083540402835291602001916125af565b820191906000526020600020905b81548152906001019060200180831161259257829003601f168201915b5050505050905090565b60606000821415612601576040518060400160405280600181526020017f30000000000000000000000000000000000000000000000000000000000000008152509050612761565b600082905060005b6000821461263357808061261c90613a77565b915050600a8261262c919061389f565b9150612609565b60008167ffffffffffffffff811115612675577f4e487b7100000000000000000000000000000000000000000000000000000000600052604160045260246000fd5b6040519080825280601f01601f1916602001820160405280156126a75781602001600182028036833780820191505090505b5090505b6000851461275a576001826126c0919061392a565b9150600a856126cf9190613ac0565b60306126db9190613849565b60f81b818381518110612717577f4e487b7100000000000000000000000000000000000000000000000000000000600052603260045260246000fd5b60200101907effffffffffffffffffffffffffffffffffffffffffffffffffffffffffffff1916908160001a905350600a85612753919061389f565b94506126ab565b8093505050505b919050565b6127708383612962565b61277d60008484846127cb565b6127bc576040517f08c379a00000000000000000000000000000000000000000000000000000000081526004016127b3906134c4565b60405180910390fd5b505050565b505050565b505050565b60006127ec8473ffffffffffffffffffffffffffffffffffffffff16612b3c565b15612955578373ffffffffffffffffffffffffffffffffffffffff1663150b7a02612815611d50565b8786866040518563ffffffff1660e01b815260040161283794939291906133d2565b602060405180830381600087803b15801561285157600080fd5b505af192505050801561288257506040513d601f19601f8201168201806040525081019061287f9190612f0b565b60015b612905573d80600081146128b2576040519150601f19603f3d011682016040523d82523d6000602084013e6128b7565b606091505b506000815114156128fd576040517f08c379a00000000000000000000000000000000000000000000000000000000081526004016128f4906134c4565b60405180910390fd5b805181602001fd5b63150b7a0260e01b7bffffffffffffffffffffffffffffffffffffffffffffffffffffffff1916817bffffffffffffffffffffffffffffffffffffffffffffffffffffffff19161491505061295a565b600190505b949350505050565b600073ffffffffffffffffffffffffffffffffffffffff168273ffffffffffffffffffffffffffffffffffffffff1614156129d2576040517f08c379a00000000000000000000000000000000000000000000000000000000081526004016129c990613644565b60405180910390fd5b6129db81611dc2565b15612a1b576040517f08c379a0000000000000000000000000000000000000000000000000000000008152600401612a1290613544565b60405180910390fd5b612a27600083836127c1565b6001600460008473ffffffffffffffffffffffffffffffffffffffff1673ffffffffffffffffffffffffffffffffffffffff1681526020019081526020016000206000828254612a779190613849565b92505081905550816003600083815260200190815260200160002060006101000a81548173ffffffffffffffffffffffffffffffffffffffff021916908373ffffffffffffffffffffffffffffffffffffffff160217905550808273ffffffffffffffffffffffffffffffffffffffff16600073ffffffffffffffffffffffffffffffffffffffff167fddf252ad1be2c89b69c2b068fc378daa952ba7f163c4a11628f55a4df523b3ef60405160405180910390a4612b38600083836127c6565b5050565b6000808273ffffffffffffffffffffffffffffffffffffffff163b119050919050565b828054612b6b90613a14565b90600052602060002090601f016020900481019282612b8d5760008555612bd4565b82601f10612ba657805160ff1916838001178555612bd4565b82800160010185558215612bd4579182015b82811115612bd3578251825591602001919060010190612bb8565b5b509050612be19190612be5565b5090565b5b80821115612bfe576000816000905550600101612be6565b5090565b6000612c15612c10846137a4565b61377f565b905082815260208101848484011115612c2d57600080fd5b612c388482856139d2565b509392505050565b6000612c53612c4e846137d5565b61377f565b905082815260208101848484011115612c6b57600080fd5b612c768482856139d2565b509392505050565b600081359050612c8d816141a7565b92915050565b600081359050612ca2816141be565b92915050565b600081359050612cb7816141d5565b92915050565b600081519050612ccc816141d5565b92915050565b600082601f830112612ce357600080fd5b8135612cf3848260208601612c02565b91505092915050565b600082601f830112612d0d57600080fd5b8135612d1d848260208601612c40565b91505092915050565b600081359050612d35816141ec565b92915050565b600060208284031215612d4d57600080fd5b6000612d5b84828501612c7e565b91505092915050565b60008060408385031215612d7757600080fd5b6000612d8585828601612c7e565b9250506020612d9685828601612c7e565b9150509250929050565b600080600060608486031215612db557600080fd5b6000612dc386828701612c7e565b9350506020612dd486828701612c7e565b9250506040612de586828701612d26565b9150509250925092565b60008060008060808587031215612e0557600080fd5b6000612e1387828801612c7e565b9450506020612e2487828801612c7e565b9350506040612e3587828801612d26565b925050606085013567ffffffffffffffff811115612e5257600080fd5b612e5e87828801612cd2565b91505092959194509250565b60008060408385031215612e7d57600080fd5b6000612e8b85828601612c7e565b9250506020612e9c85828601612c93565b9150509250929050565b60008060408385031215612eb957600080fd5b6000612ec785828601612c7e565b9250506020612ed885828601612d26565b9150509250929050565b600060208284031215612ef457600080fd5b6000612f0284828501612ca8565b91505092915050565b600060208284031215612f1d57600080fd5b6000612f2b84828501612cbd565b91505092915050565b600060208284031215612f4657600080fd5b600082013567ffffffffffffffff811115612f6057600080fd5b612f6c84828501612cfc565b91505092915050565b600060208284031215612f8757600080fd5b6000612f9584828501612d26565b91505092915050565b612fa78161395e565b82525050565b612fb681613970565b82525050565b6000612fc782613806565b612fd1818561381c565b9350612fe18185602086016139e1565b612fea81613bad565b840191505092915050565b600061300082613811565b61300a818561382d565b935061301a8185602086016139e1565b61302381613bad565b840191505092915050565b600061303982613811565b613043818561383e565b93506130538185602086016139e1565b80840191505092915050565b600061306c60138361382d565b915061307782613bbe565b602082019050919050565b600061308f60218361382d565b915061309a82613be7565b604082019050919050565b60006130b260328361382d565b91506130bd82613c36565b604082019050919050565b60006130d560198361382d565b91506130e082613c85565b602082019050919050565b60006130f860268361382d565b915061310382613cae565b604082019050919050565b600061311b60258361382d565b915061312682613cfd565b604082019050919050565b600061313e601c8361382d565b915061314982613d4c565b602082019050919050565b600061316160248361382d565b915061316c82613d75565b604082019050919050565b600061318460198361382d565b915061318f82613dc4565b602082019050919050565b60006131a7602c8361382d565b91506131b282613ded565b604082019050919050565b60006131ca60388361382d565b91506131d582613e3c565b604082019050919050565b60006131ed602a8361382d565b91506131f882613e8b565b604082019050919050565b600061321060298361382d565b915061321b82613eda565b604082019050919050565b6000613233602c8361382d565b915061323e82613f29565b604082019050919050565b600061325660208361382d565b915061326182613f78565b602082019050919050565b600061327960188361382d565b915061328482613fa1565b602082019050919050565b600061329c602c8361382d565b91506132a782613fca565b604082019050919050565b60006132bf60208361382d565b91506132ca82614019565b602082019050919050565b60006132e2602f8361382d565b91506132ed82614042565b604082019050919050565b600061330560218361382d565b915061331082614091565b604082019050919050565b6000613328601a8361382d565b9150613333826140e0565b602082019050919050565b600061334b60318361382d565b915061335682614109565b604082019050919050565b600061336e60238361382d565b915061337982614158565b604082019050919050565b61338d816139c8565b82525050565b600061339f828561302e565b91506133ab828461302e565b91508190509392505050565b60006020820190506133cc6000830184612f9e565b92915050565b60006080820190506133e76000830187612f9e565b6133f46020830186612f9e565b6134016040830185613384565b81810360608301526134138184612fbc565b905095945050505050565b60006040820190506134336000830185612f9e565b6134406020830184613384565b9392505050565b600060208201905061345c6000830184612fad565b92915050565b6000602082019050818103600083015261347c8184612ff5565b905092915050565b6000602082019050818103600083015261349d8161305f565b9050919050565b600060208201905081810360008301526134bd81613082565b9050919050565b600060208201905081810360008301526134dd816130a5565b9050919050565b600060208201905081810360008301526134fd816130c8565b9050919050565b6000602082019050818103600083015261351d816130eb565b9050919050565b6000602082019050818103600083015261353d8161310e565b9050919050565b6000602082019050818103600083015261355d81613131565b9050919050565b6000602082019050818103600083015261357d81613154565b9050919050565b6000602082019050818103600083015261359d81613177565b9050919050565b600060208201905081810360008301526135bd8161319a565b9050919050565b600060208201905081810360008301526135dd816131bd565b9050919050565b600060208201905081810360008301526135fd816131e0565b9050919050565b6000602082019050818103600083015261361d81613203565b9050919050565b6000602082019050818103600083015261363d81613226565b9050919050565b6000602082019050818103600083015261365d81613249565b9050919050565b6000602082019050818103600083015261367d8161326c565b9050919050565b6000602082019050818103600083015261369d8161328f565b9050919050565b600060208201905081810360008301526136bd816132b2565b9050919050565b600060208201905081810360008301526136dd816132d5565b9050919050565b600060208201905081810360008301526136fd816132f8565b9050919050565b6000602082019050818103600083015261371d8161331b565b9050919050565b6000602082019050818103600083015261373d8161333e565b9050919050565b6000602082019050818103600083015261375d81613361565b9050919050565b60006020820190506137796000830184613384565b92915050565b600061378961379a565b90506137958282613a46565b919050565b6000604051905090565b600067ffffffffffffffff8211156137bf576137be613b7e565b5b6137c882613bad565b9050602081019050919050565b600067ffffffffffffffff8211156137f0576137ef613b7e565b5b6137f982613bad565b9050602081019050919050565b600081519050919050565b600081519050919050565b600082825260208201905092915050565b600082825260208201905092915050565b600081905092915050565b6000613854826139c8565b915061385f836139c8565b9250827fffffffffffffffffffffffffffffffffffffffffffffffffffffffffffffffff0382111561389457613893613af1565b5b828201905092915050565b60006138aa826139c8565b91506138b5836139c8565b9250826138c5576138c4613b20565b5b828204905092915050565b60006138db826139c8565b91506138e6836139c8565b9250817fffffffffffffffffffffffffffffffffffffffffffffffffffffffffffffffff048311821515161561391f5761391e613af1565b5b828202905092915050565b6000613935826139c8565b9150613940836139c8565b92508282101561395357613952613af1565b5b828203905092915050565b6000613969826139a8565b9050919050565b60008115159050919050565b60007fffffffff0000000000000000000000000000000000000000000000000000000082169050919050565b600073ffffffffffffffffffffffffffffffffffffffff82169050919050565b6000819050919050565b82818337600083830152505050565b60005b838110156139ff5780820151818401526020810190506139e4565b83811115613a0e576000848401525b50505050565b60006002820490506001821680613a2c57607f821691505b60208210811415613a4057613a3f613b4f565b5b50919050565b613a4f82613bad565b810181811067ffffffffffffffff82111715613a6e57613a6d613b7e565b5b80604052505050565b6000613a82826139c8565b91507fffffffffffffffffffffffffffffffffffffffffffffffffffffffffffffffff821415613ab557613ab4613af1565b5b600182019050919050565b6000613acb826139c8565b9150613ad6836139c8565b925082613ae657613ae5613b20565b5b828206905092915050565b7f4e487b7100000000000000000000000000000000000000000000000000000000600052601160045260246000fd5b7f4e487b7100000000000000000000000000000000000000000000000000000000600052601260045260246000fd5b7f4e487b7100000000000000000000000000000000000000000000000000000000600052602260045260246000fd5b7f4e487b7100000000000000000000000000000000000000000000000000000000600052604160045260246000fd5b6000601f19601f8301169050919050565b7f53616c65206d7573742062652061637469766500000000000000000000000000600082015250565b7f4f6e6c79206f6e65207370656369616c206d696e7420697320706f737369626c60008201527f6500000000000000000000000000000000000000000000000000000000000000602082015250565b7f4552433732313a207472616e7366657220746f206e6f6e20455243373231526560008201527f63656976657220696d706c656d656e7465720000000000000000000000000000602082015250565b7f53656e646572206973206e6f742077686974656c697374656400000000000000600082015250565b7f4f776e61626c653a206e6577206f776e657220697320746865207a65726f206160008201527f6464726573730000000000000000000000000000000000000000000000000000602082015250565b7f4552433732313a207472616e736665722066726f6d20696e636f72726563742060008201527f6f776e6572000000000000000000000000000000000000000000000000000000602082015250565b7f4552433732313a20746f6b656e20616c7265616479206d696e74656400000000600082015250565b7f4552433732313a207472616e7366657220746f20746865207a65726f2061646460008201527f7265737300000000000000000000000000000000000000000000000000000000602082015250565b7f4552433732313a20617070726f766520746f2063616c6c657200000000000000600082015250565b7f4552433732313a206f70657261746f7220717565727920666f72206e6f6e657860008201527f697374656e7420746f6b656e0000000000000000000000000000000000000000602082015250565b7f4552433732313a20617070726f76652063616c6c6572206973206e6f74206f7760008201527f6e6572206e6f7220617070726f76656420666f7220616c6c0000000000000000602082015250565b7f4552433732313a2062616c616e636520717565727920666f7220746865207a6560008201527f726f206164647265737300000000000000000000000000000000000000000000602082015250565b7f4552433732313a206f776e657220717565727920666f72206e6f6e657869737460008201527f656e7420746f6b656e0000000000000000000000000000000000000000000000602082015250565b7f4f6e6c792061646d696e206f72206f776e65722061726520616c6c6f7765642060008201527f746f2077686974656c6973740000000000000000000000000000000000000000602082015250565b7f4552433732313a206d696e7420746f20746865207a65726f2061646472657373600082015250565b7f4d6178207075726368617365206973203320746f6b656e730000000000000000600082015250565b7f4552433732313a20617070726f76656420717565727920666f72206e6f6e657860008201527f697374656e7420746f6b656e0000000000000000000000000000000000000000602082015250565b7f4f776e61626c653a2063616c6c6572206973206e6f7420746865206f776e6572600082015250565b7f4552433732314d657461646174613a2055524920717565727920666f72206e6f60008201527f6e6578697374656e7420746f6b656e0000000000000000000000000000000000602082015250565b7f4552433732313a20617070726f76616c20746f2063757272656e74206f776e6560008201527f7200000000000000000000000000000000000000000000000000000000000000602082015250565b7f507572636861736520657863656564206d617820737570706c79000000000000600082015250565b7f4552433732313a207472616e736665722063616c6c6572206973206e6f74206f60008201527f776e6572206e6f7220617070726f766564000000000000000000000000000000602082015250565b7f56616c75652073656e74206973206c6f776572207468616e206d696e7420707260008201527f6963650000000000000000000000000000000000000000000000000000000000602082015250565b6141b08161395e565b81146141bb57600080fd5b50565b6141c781613970565b81146141d257600080fd5b50565b6141de8161397c565b81146141e957600080fd5b50565b6141f5816139c8565b811461420057600080fd5b5056fea264697066735822122054b33d14477a1bb0ed46c6b60a6542aef718f90de9093a0d80167afa99a2751264736f6c63430008010033",
    "linkReferences": {},
    "deployedLinkReferences": {}
}